:100000000C942A000C9447000C9447000C94470071
:100010000C9447000C9447000C9447000C94470044
:100020000C9447000C9447000C9447000C94470034
:100030000C9447000C9447000C9447000C94470024
:100040000C9447000C9447000C9447000C94470014
:100050000C94470011241FBECFE5D4E0DEBFCDBF16
:1000600010E0A0E6B0E0E0E7F3E002C005900D92FA
:10007000A036B107D9F710E0A0E6B0E001C01D92AC
:10008000A236B107E1F70E9442010C94B6010C942C
:100090000000282F207F28BBC298C39A20ED37E0AC
:1000A000F9013197F1F7C398F9013197F1F790E031
:1000B00044E0880F991F4A95E1F788BBC298C39A1C
:1000C000C9010197F1F7C398C9010197F1F70895A4
:1000D00082E090E00E94490088E290E00E9449009E
:1000E00086E090E00E9449008CE090E00E94490088
:1000F0000895282F207F28BBC29AC39A20ED37E0AD
:10010000F9013197F1F7C398F9013197F1F790E0D0
:1001100054E0880F991F5A95E1F788BBC29AC39A99
:10012000C9010197F1F7C398C9010197F1F7089543
:1001300081E00E94490080ED97E00197F1F7089572
:100140001F93CF93DF93EC0110E003C00E9479006E
:100150001F5FFE01E10FF11D80818823B9F7DF9158
:10016000CF911F910895CF93DF93EC0184E00E941B
:100170004900209791F480E30E9479000EC0CE01DF
:100180006AE070E00E94A201805D0E947900CE01C9
:100190006AE070E00E94A201EB01209781F786E0FF
:1001A0000E944900DF91CF91089580E40E944900A8
:1001B00080E00E94790084E00E9479008EE00E9435
:1001C000790082E00E9479008CE00E9479008CE046
:1001D0000E94790083E00E94790080E00E9479000B
:1001E00088E40E94490080E00E94790084E00E9437
:1001F000790084E00E94790086E00E94790082E123
:100200000E9479008CE00E94790080E00E947900D1
:1002100080E00E94790080E50E94490080E00E9411
:1002200079008AE10E9479008AE10E9479008EE0DB
:100230000E9479008AE10E9479008AE00E94790098
:1002400080E00E94790080E00E94790088E50E94A9
:10025000490080E00E9479008AE00E9479008AE0EB
:100260000E9479008AE00E9479008EE10E94790064
:100270008AE00E94790080E00E94790080E00E947C
:1002800079000895CF93DF938FEF87BB0E946800BA
:100290000E94D500C8ECD0E00E94980080E80E943F
:1002A000490080E00E94790088EE93E0FE013197DA
:1002B000F1F70197D9F781E80E94490081E00E9497
:1002C000790088EE93E0FE013197F1F70197D9F7B5
:1002D00082E80E94490082E00E94790088EE93E063
:1002E000FE013197F1F70197D9F783E80E944900A1
:1002F00083E00E94790088EE93E0FE013197F1F7E8
:100300000197D9F7109261001092600013C08CE140
:100310000E94490088EE93E0FE013197F1F70197C2
:10032000D9F78091600090916100019690936100EF
:1003300080936000809160009091610006970CF0BE
:10034000ABCFE5CFAA1BBB1B51E107C0AA1FBB1F48
:10035000A617B70710F0A61BB70B881F991F5A9551
:10036000A9F780959095BC01CD010895F894FFCF31
:00000001FF
